:020000020000FC
:100000000BC08F939F9385E19FEF9A95F1F78A95A7
:10001000D9F79F918F91089508E00EBF0FEF0DBFA4
:10002000C0E0D1E08827882309F402C0259A01C0E6
:100030002598682E8827482E8827782E8827582EBE
:1000400081E0482E882309F402C0259A01C0259832
:100050002D9A88279927888399838881998126E911
:1000600033278217930708F008C0CBDF8881998176
:100070008F5F9F4F88839983F0CF2D98882799278A
:1000800088839983888199812EEE32E082179307C5
:1000900008F008C0B6DF888199818F5F9F4F888301
:0600A0009983F0CFD5CFDB
:00000001FF
