:020000020000FC
:100000000BC08F939F9385E19FEF9A95F1F78A95A7
:10001000D9F79F918F91089508E00EBF0FEF0DBFA4
:10002000C0E0D1E08827882309F402C0259A01C0E6
:100030002598982E8827582E81E0582E882309F479
:1000400002C0259A01C025988827882309F402C098
:10005000529A01C05298782E8827482E88278827E0
:10006000882309F402C0529A01C0529881E0882E78
:100070005A9A4A9B02C081E001C08827082F682E47
:10008000803009F002C02D9A01C02D988827992749
:1000900088839983888199812AE03327821793077F
:1000A00008F008C0AEDF888199818F5F9F4F8883F9
:0600B0009983F0CFDECFC2
:00000001FF
